{
  "_format": "hh-sol-artifact-1",
  "contractName": "DeployedTokenManagement",
  "sourceName": "contracts/DeployedTokenManagement.sol",
  "abi": [
    {
      "inputs": [
        {
          "internalType": "address",
          "name": "smcAddress",
          "type": "address"
        }
      ],
      "name": "addToken",
      "outputs": [],
      "stateMutability": "nonpayable",
      "type": "function"
    },
    {
      "inputs": [
        {
          "internalType": "address",
          "name": "smcAddress",
          "type": "address"
        }
      ],
      "name": "checkIfTokenOwner",
      "outputs": [
        {
          "internalType": "bool",
          "name": "",
          "type": "bool"
        }
      ],
      "stateMutability": "view",
      "type": "function"
    },
    {
      "inputs": [
        {
          "internalType": "address",
          "name": "owner",
          "type": "address"
        }
      ],
      "name": "getTokenList",
      "outputs": [
        {
          "internalType": "address[]",
          "name": "",
          "type": "address[]"
        }
      ],
      "stateMutability": "view",
      "type": "function"
    },
    {
      "inputs": [
        {
          "internalType": "address",
          "name": "",
          "type": "address"
        },
        {
          "internalType": "uint256",
          "name": "",
          "type": "uint256"
        }
      ],
      "name": "ownership",
      "outputs": [
        {
          "internalType": "address",
          "name": "",
          "type": "address"
        }
      ],
      "stateMutability": "view",
      "type": "function"
    },
    {
      "inputs": [
        {
          "internalType": "address",
          "name": "",
          "type": "address"
        }
      ],
      "name": "tokenCount",
      "outputs": [
        {
          "internalType": "uint256",
          "name": "",
          "type": "uint256"
        }
      ],
      "stateMutability": "view",
      "type": "function"
    }
  ],
  "bytecode": "0x608060405234801561001057600080fd5b506109e0806100206000396000f3fe608060405234801561001057600080fd5b50600436106100575760003560e01c806356225a091461005c5780637fff60001461008c578063d48bfca7146100bc578063d8a30732146100d8578063ee9bfc8c14610108575b600080fd5b61007660048036038101906100719190610625565b610138565b604051610083919061066b565b60405180910390f35b6100a660048036038101906100a19190610625565b610150565b6040516100b391906106a1565b60405180910390f35b6100d660048036038101906100d19190610625565b610268565b005b6100f260048036038101906100ed9190610625565b610352565b6040516100ff919061077a565b60405180910390f35b610122600480360381019061011d91906107c8565b610580565b60405161012f9190610817565b60405180910390f35b60016020528060005260406000206000915090505481565b6000816000805b600160003373ffffffffffffffffffffffffffffffffffffffff1673ffffffffffffffffffffffffffffffffffffffff16815260200190815260200160002054811015610252578273ffffffffffffffffffffffffffffffffffffffff166000803373ffffffffffffffffffffffffffffffffffffffff1673ffffffffffffffffffffffffffffffffffffffff168152602001908152602001600020600083815260200190815260200160002060009054906101000a900473ffffffffffffffffffffffffffffffffffffffff1673ffffffffffffffffffffffffffffffffffffffff160361024557600191505b8080600101915050610157565b508061025d57600080fd5b600192505050919050565b6000600160003373ffffffffffffffffffffffffffffffffffffffff1673ffffffffffffffffffffffffffffffffffffffff16815260200190815260200160002060008154809291906102ba90610861565b919050559050816000803373ffffffffffffffffffffffffffffffffffffffff1673ffffffffffffffffffffffffffffffffffffffff168152602001908152602001600020600083815260200190815260200160002060006101000a81548173ffffffffffffffffffffffffffffffffffffffff021916908373ffffffffffffffffffffffffffffffffffffffff1602179055505050565b60606000600160008473ffffffffffffffffffffffffffffffffffffffff1673ffffffffffffffffffffffffffffffffffffffff16815260200190815260200160002054116103d6576040517f08c379a00000000000000000000000000000000000000000000000000000000081526004016103cd9061092c565b60405180910390fd5b6000600160008473ffffffffffffffffffffffffffffffffffffffff1673ffffffffffffffffffffffffffffffffffffffff1681526020019081526020016000205467ffffffffffffffff8111156104315761043061094c565b5b60405190808252806020026020018201604052801561045f5781602001602082028036833780820191505090505b50905060005b600160008573ffffffffffffffffffffffffffffffffffffffff1673ffffffffffffffffffffffffffffffffffffffff16815260200190815260200160002054811015610576576000808573ffffffffffffffffffffffffffffffffffffffff1673ffffffffffffffffffffffffffffffffffffffff168152602001908152602001600020600082815260200190815260200160002060009054906101000a900473ffffffffffffffffffffffffffffffffffffffff1682828151811061052f5761052e61097b565b5b602002602001019073ffffffffffffffffffffffffffffffffffffffff16908173ffffffffffffffffffffffffffffffffffffffff16815250508080600101915050610465565b5080915050919050565b60006020528160005260406000206020528060005260406000206000915091509054906101000a900473ffffffffffffffffffffffffffffffffffffffff1681565b600080fd5b600073ffffffffffffffffffffffffffffffffffffffff82169050919050565b60006105f2826105c7565b9050919050565b610602816105e7565b811461060d57600080fd5b50565b60008135905061061f816105f9565b92915050565b60006020828403121561063b5761063a6105c2565b5b600061064984828501610610565b91505092915050565b6000819050919050565b61066581610652565b82525050565b6000602082019050610680600083018461065c565b92915050565b60008115159050919050565b61069b81610686565b82525050565b60006020820190506106b66000830184610692565b92915050565b600081519050919050565b600082825260208201905092915050565b6000819050602082019050919050565b6106f1816105e7565b82525050565b600061070383836106e8565b60208301905092915050565b6000602082019050919050565b6000610727826106bc565b61073181856106c7565b935061073c836106d8565b8060005b8381101561076d57815161075488826106f7565b975061075f8361070f565b925050600181019050610740565b5085935050505092915050565b60006020820190508181036000830152610794818461071c565b905092915050565b6107a581610652565b81146107b057600080fd5b50565b6000813590506107c28161079c565b92915050565b600080604083850312156107df576107de6105c2565b5b60006107ed85828601610610565b92505060206107fe858286016107b3565b9150509250929050565b610811816105e7565b82525050565b600060208201905061082c6000830184610808565b92915050565b7f4e487b7100000000000000000000000000000000000000000000000000000000600052601160045260246000fd5b600061086c82610652565b91507fffffffffffffffffffffffffffffffffffffffffffffffffffffffffffffffff820361089e5761089d610832565b5b600182019050919050565b600082825260208201905092915050565b7f5468697320616464726573732068617665206e6f74206465706c6f7920616e7960008201527f20746f6b656e2100000000000000000000000000000000000000000000000000602082015250565b60006109166027836108a9565b9150610921826108ba565b604082019050919050565b6000602082019050818103600083015261094581610909565b9050919050565b7f4e487b7100000000000000000000000000000000000000000000000000000000600052604160045260246000fd5b7f4e487b7100000000000000000000000000000000000000000000000000000000600052603260045260246000fdfea264697066735822122009470da1c80aae7f2c3abc8990a199c2df24d2ad97d131808d49793dce5dc7ad64736f6c63430008180033",
  "linkReferences": {},
  "deployedLinkReferences": {}
}